:100000000C945D000C9485000C9485000C94850084
:100010000C9485000C9485000C9485000C9485004C
:100020000C9485000C9485000C9485000C9485003C
:100030000C9485000C9485000C9485000C9485002C
:100040000C941C020C9485000C9485000C94850083
:100050000C9485000C9485000C9485000C9485000C
:100060000C9485000C94850000000008000201003B
:100070000003040700000000000000000102040863
:100080001020408001020408102001020408102002
:10009000040404040404040402020202020203032E
:1000A0000303030300000000250028002B000000CC
:1000B0000000240027002A00B20011241FBECFEF49
:1000C000D8E0DEBFCDBF11E0A0E0B1E0E0E2F7E0B4
:1000D00002C005900D92A030B107D9F721E0A0E051
:1000E000B1E001C01D92A136B207E1F710E0CAEB02
:1000F000D0E004C02297FE010E948A03C83BD107CA
:10010000C9F70E9479030C948E030C94000040E020
:1001100060E070E080E091E00E94240140E061E056
:1001200070E080E091E00E94240145E050E060E052
:1001300070E080E091E00E94470145E050E061E01E
:1001400070E080E091E00E94470160E070E080E0B4
:1001500091E00E94570161E070E080E091E00C9432
:10016000570108950F931F9302E010E02AE030E05A
:100170004BE050E06CE070E080E091E00E948D0187
:100180001F910F9108958F929F92AF92BF92CF923D
:10019000DF92EF92FF920F931F93CF93DF9300D0E4
:1001A000CDB7DEB78C0149832A83660F771FF8012C
:1001B000EA5AFF4FE080F180EE0CFF1CF801CF01FE
:1001C000801B910B8E159F0514F41192F8CF898135
:1001D000F801E60FF71F81838A818083680184E537
:1001E000C80ED11C60E0F60180810E940303580113
:1001F000F2E5AF0EB11C480180E5880E911C1E147B
:100200001F047CF4E1E0EE1AF108F801EE0DFF1D89
:10021000208141E0F5016081F40180810E94390371
:10022000EECF61E0F60180810F900F90DF91CF91CA
:100230001F910F91FF90EF90DF90CF90BF90AF9004
:100240009F908F900C94030377FD10C0FC01EA5A35
:10025000FF4F208131816217730744F4442311F06A
:1002600020E001C021E04CE00C94C3000895242F4D
:1002700077FD0CC0FC01EA5AFF4F0190F081E02DA0
:100280006E177F071CF44BE00C94C3000895242FD5
:1002900077FD0CC0FC01EA5AFF4F0190F081E02D80
:1002A0006E177F071CF44AE00C94C3000895CF92A8
:1002B000DF92EF92FF920F931F93CF93DF937C0116
:1002C0008B0177FD21C0FC01EA5AFF4F80819181AB
:1002D00068177907CCF46B0123E0CC0CDD1C2A9560
:1002E000E1F7C0E0D0E0CE0CDF1CF601EC0FFD1F03
:1002F000108A4C2F4F5F20E0B801C7010E94C30055
:100300002196C830D10589F7DF91CF911F910F91C8
:10031000FF90EF90DF90CF9008954F925F927F9281
:100320008F929F92AF92BF92CF92DF92EF92FF9205
:100330000F931F93CF93DF931F92CDB7DEB72C019E
:10034000762E7C0180E5E80EF11CF7016083718355
:100350004201F2E58F0E911CF4015183408362014A
:10036000F4E5CF0ED11CF60131832083C80101973B
:10037000089710F008E010E05201F6E5AF0EB11C4E
:10038000F5011183008361E0872D79830E94CA0201
:1003900061E0F40180810E94CA0261E0F60180817F
:1003A0000E94CA0261E0F60180810E940303F70106
:1003B00070827981718380E090E0F201E80FF91F8B
:1003C000108A019680349105C1F700E010E0F50134
:1003D0008081918108171907F4F420E04FE0B801FB
:1003E000C2010E94C30047E050E0B801C2010E9470
:1003F000370120E049E0B801C2010E94C300B80102
:10040000C2010E94570141E0B801C2010E942401CB
:100410000F5F1F4FDCCF0F90DF91CF911F910F9196
:10042000FF90EF90DF90CF90BF90AF909F908F9014
:100430007F905F904F9008951F920F920FB60F928A
:1004400011242F933F938F939F93AF93BF938091EA
:10045000590190915A01A0915B01B0915C013091DA
:10046000580123E0230F2D3720F40196A11DB11D63
:1004700005C026E8230F0296A11DB11D2093580147
:100480008093590190935A01A0935B01B0935C0152
:1004900080915D0190915E01A0915F01B09160013A
:1004A0000196A11DB11D80935D0190935E01A09303
:1004B0005F01B0936001BF91AF919F918F913F9188
:1004C0002F910F900FBE0F901F901895789484B5C0
:1004D000826084BD84B5816084BD85B5826085BD40
:1004E00085B5816085BDEEE6F0E080818160808326
:1004F000E1E8F0E010828081826080838081816009
:100500008083E0E8F0E0808181608083E1EBF0E0CF
:10051000808184608083E0EBF0E080818160808373
:10052000EAE7F0E08081846080838081826080835C
:100530008081816080838081806880831092C10087
:100540000895833081F028F4813099F08230A1F051
:1005500008958730A9F08830B9F08430D1F48091C3
:1005600080008F7D03C0809180008F778093800012
:10057000089584B58F7702C084B58F7D84BD0895BA
:100580008091B0008F7703C08091B0008F7D809301
:10059000B0000895CF93DF9390E0FC01E458FF4F43
:1005A0002491FC01E057FF4F8491882349F190E0AA
:1005B000880F991FFC01E255FF4FA591B4918C550E
:1005C0009F4FFC01C591D4919FB7611108C0F89469
:1005D0008C91209582238C93888182230AC062307B
:1005E00051F4F8948C91322F309583238C93888129
:1005F000822B888304C0F8948C91822B8C939FBFAC
:10060000DF91CF9108950F931F93CF93DF931F92A4
:10061000CDB7DEB7282F30E0F901E859FF4F8491BC
:10062000F901E458FF4F1491F901E057FF4F04918D
:100630000023C9F0882321F069830E94A102698107
:10064000E02FF0E0EE0FFF1FEC55FF4FA591B491A6
:100650009FB7F8948C91611103C01095812301C05C
:10066000812B8C939FBF0F90DF91CF911F910F91A2
:100670000895BF92CF92DF92EF92FF920F931F9354
:10068000CF93DF93C82ED62EB42EC7E0D0E0022F32
:1006900010E087E0E82EF12CB1100AC0F701EC1B46
:1006A000FD0BB80102C075956795EA95E2F707C0A2
:1006B000B8010C2E02C0759567950A94E2F7617037
:1006C00077278C2D0E94030361E08D2D0E94030388
:1006D00060E08D2D0E9403032197F0F6DF91CF910A
:1006E0001F910F91FF90EF90DF90CF90BF900895F2
:1006F00008950E9466020E9478030E948700C0E06D
:10070000D0E00E94B1002097E1F30E940000F9CFF1
:10071000EE0FFF1F0590F491E02D0994F894FFCFA0
:00000001FF
